{
  "contractName": "DocumentInfo",
  "abi": [
    {
      "anonymous": false,
      "inputs": [
        {
          "indexed": false,
          "internalType": "string",
          "name": "oldDescription",
          "type": "string"
        },
        {
          "indexed": false,
          "internalType": "string",
          "name": "newDescription",
          "type": "string"
        },
        {
          "indexed": false,
          "internalType": "uint256",
          "name": "timeEdited",
          "type": "uint256"
        }
      ],
      "name": "DescriptionEdited",
      "type": "event"
    },
    {
      "anonymous": false,
      "inputs": [
        {
          "indexed": true,
          "internalType": "bytes32",
          "name": "documentId",
          "type": "bytes32"
        },
        {
          "indexed": false,
          "internalType": "string",
          "name": "ipfsHash",
          "type": "string"
        },
        {
          "indexed": false,
          "internalType": "string",
          "name": "title",
          "type": "string"
        },
        {
          "indexed": false,
          "internalType": "string",
          "name": "description",
          "type": "string"
        },
        {
          "indexed": false,
          "internalType": "uint256",
          "name": "documentIndex",
          "type": "uint256"
        }
      ],
      "name": "DocumentCreated",
      "type": "event"
    },
    {
      "anonymous": false,
      "inputs": [
        {
          "indexed": false,
          "internalType": "address",
          "name": "account",
          "type": "address"
        }
      ],
      "name": "Paused",
      "type": "event"
    },
    {
      "anonymous": false,
      "inputs": [
        {
          "indexed": true,
          "internalType": "address",
          "name": "account",
          "type": "address"
        }
      ],
      "name": "PauserAdded",
      "type": "event"
    },
    {
      "anonymous": false,
      "inputs": [
        {
          "indexed": true,
          "internalType": "address",
          "name": "account",
          "type": "address"
        }
      ],
      "name": "PauserRemoved",
      "type": "event"
    },
    {
      "anonymous": false,
      "inputs": [
        {
          "indexed": false,
          "internalType": "string",
          "name": "tag",
          "type": "string"
        },
        {
          "indexed": false,
          "internalType": "uint8",
          "name": "tagCount",
          "type": "uint8"
        },
        {
          "indexed": false,
          "internalType": "uint256",
          "name": "timeAdded",
          "type": "uint256"
        }
      ],
      "name": "TagAdded",
      "type": "event"
    },
    {
      "anonymous": false,
      "inputs": [
        {
          "indexed": false,
          "internalType": "string",
          "name": "tag",
          "type": "string"
        },
        {
          "indexed": false,
          "internalType": "uint8",
          "name": "tagCount",
          "type": "uint8"
        },
        {
          "indexed": false,
          "internalType": "uint256",
          "name": "timeRemoved",
          "type": "uint256"
        }
      ],
      "name": "TagRemoved",
      "type": "event"
    },
    {
      "anonymous": false,
      "inputs": [
        {
          "indexed": false,
          "internalType": "string",
          "name": "oldTitle",
          "type": "string"
        },
        {
          "indexed": false,
          "internalType": "string",
          "name": "newTitle",
          "type": "string"
        },
        {
          "indexed": false,
          "internalType": "uint256",
          "name": "timeEdited",
          "type": "uint256"
        }
      ],
      "name": "TitleEdited",
      "type": "event"
    },
    {
      "anonymous": false,
      "inputs": [
        {
          "indexed": false,
          "internalType": "address",
          "name": "account",
          "type": "address"
        }
      ],
      "name": "Unpaused",
      "type": "event"
    },
    {
      "constant": true,
      "inputs": [],
      "name": "MAX_DESCRIPTION_LENGTH",
      "outputs": [
        {
          "internalType": "uint8",
          "name": "",
          "type": "uint8"
        }
      ],
      "payable": false,
      "stateMutability": "view",
      "type": "function"
    },
    {
      "constant": true,
      "inputs": [],
      "name": "MAX_NUM_TAG",
      "outputs": [
        {
          "internalType": "uint8",
          "name": "",
          "type": "uint8"
        }
      ],
      "payable": false,
      "stateMutability": "view",
      "type": "function"
    },
    {
      "constant": true,
      "inputs": [],
      "name": "MAX_TAG_LENGTH",
      "outputs": [
        {
          "internalType": "uint8",
          "name": "",
          "type": "uint8"
        }
      ],
      "payable": false,
      "stateMutability": "view",
      "type": "function"
    },
    {
      "constant": true,
      "inputs": [],
      "name": "MAX_TITLE_LENGTH",
      "outputs": [
        {
          "internalType": "uint8",
          "name": "",
          "type": "uint8"
        }
      ],
      "payable": false,
      "stateMutability": "view",
      "type": "function"
    },
    {
      "constant": false,
      "inputs": [
        {
          "internalType": "address",
          "name": "account",
          "type": "address"
        }
      ],
      "name": "addPauser",
      "outputs": [],
      "payable": false,
      "stateMutability": "nonpayable",
      "type": "function"
    },
    {
      "constant": true,
      "inputs": [
        {
          "internalType": "address",
          "name": "account",
          "type": "address"
        }
      ],
      "name": "isPauser",
      "outputs": [
        {
          "internalType": "bool",
          "name": "",
          "type": "bool"
        }
      ],
      "payable": false,
      "stateMutability": "view",
      "type": "function"
    },
    {
      "constant": false,
      "inputs": [],
      "name": "pause",
      "outputs": [],
      "payable": false,
      "stateMutability": "nonpayable",
      "type": "function"
    },
    {
      "constant": true,
      "inputs": [],
      "name": "paused",
      "outputs": [
        {
          "internalType": "bool",
          "name": "",
          "type": "bool"
        }
      ],
      "payable": false,
      "stateMutability": "view",
      "type": "function"
    },
    {
      "constant": false,
      "inputs": [],
      "name": "renouncePauser",
      "outputs": [],
      "payable": false,
      "stateMutability": "nonpayable",
      "type": "function"
    },
    {
      "constant": false,
      "inputs": [],
      "name": "unpause",
      "outputs": [],
      "payable": false,
      "stateMutability": "nonpayable",
      "type": "function"
    },
    {
      "constant": false,
      "inputs": [
        {
          "internalType": "string",
          "name": "_ipfsHash",
          "type": "string"
        },
        {
          "internalType": "string",
          "name": "_title",
          "type": "string"
        },
        {
          "internalType": "string",
          "name": "_description",
          "type": "string"
        }
      ],
      "name": "createDocument",
      "outputs": [],
      "payable": false,
      "stateMutability": "nonpayable",
      "type": "function"
    },
    {
      "constant": false,
      "inputs": [
        {
          "internalType": "uint256",
          "name": "documentIndex",
          "type": "uint256"
        },
        {
          "internalType": "string",
          "name": "_title",
          "type": "string"
        }
      ],
      "name": "editTitle",
      "outputs": [],
      "payable": false,
      "stateMutability": "nonpayable",
      "type": "function"
    },
    {
      "constant": false,
      "inputs": [
        {
          "internalType": "uint256",
          "name": "documentIndex",
          "type": "uint256"
        },
        {
          "internalType": "string",
          "name": "_description",
          "type": "string"
        }
      ],
      "name": "editDescription",
      "outputs": [],
      "payable": false,
      "stateMutability": "nonpayable",
      "type": "function"
    },
    {
      "constant": false,
      "inputs": [
        {
          "internalType": "uint256",
          "name": "documentIndex",
          "type": "uint256"
        },
        {
          "internalType": "string",
          "name": "_tag",
          "type": "string"
        }
      ],
      "name": "addTag",
      "outputs": [],
      "payable": false,
      "stateMutability": "nonpayable",
      "type": "function"
    },
    {
      "constant": false,
      "inputs": [
        {
          "internalType": "uint256",
          "name": "documentIndex",
          "type": "uint256"
        },
        {
          "internalType": "string",
          "name": "_tag",
          "type": "string"
        }
      ],
      "name": "removeTag",
      "outputs": [],
      "payable": false,
      "stateMutability": "nonpayable",
      "type": "function"
    },
    {
      "constant": true,
      "inputs": [],
      "name": "getNumberOfDocuments",
      "outputs": [
        {
          "internalType": "uint256",
          "name": "",
          "type": "uint256"
        }
      ],
      "payable": false,
      "stateMutability": "view",
      "type": "function"
    },
    {
      "constant": true,
      "inputs": [
        {
          "internalType": "uint256",
          "name": "documentIndex",
          "type": "uint256"
        }
      ],
      "name": "getDocument",
      "outputs": [
        {
          "internalType": "bytes32",
          "name": "_documentId",
          "type": "bytes32"
        },
        {
          "internalType": "string",
          "name": "_title",
          "type": "string"
        },
        {
          "internalType": "string",
          "name": "_description",
          "type": "string"
        },
        {
          "internalType": "string",
          "name": "_ipfsHash",
          "type": "string"
        }
      ],
      "payable": false,
      "stateMutability": "view",
      "type": "function"
    },
    {
      "constant": true,
      "inputs": [
        {
          "internalType": "uint256",
          "name": "documentIndex",
          "type": "uint256"
        }
      ],
      "name": "getNumberOfTags",
      "outputs": [
        {
          "internalType": "uint256",
          "name": "tagIndex",
          "type": "uint256"
        }
      ],
      "payable": false,
      "stateMutability": "view",
      "type": "function"
    },
    {
      "constant": true,
      "inputs": [
        {
          "internalType": "uint256",
          "name": "documentIndex",
          "type": "uint256"
        },
        {
          "internalType": "uint256",
          "name": "tagIndex",
          "type": "uint256"
        }
      ],
      "name": "getTagByIndex",
      "outputs": [
        {
          "internalType": "bytes32",
          "name": "tag",
          "type": "bytes32"
        },
        {
          "internalType": "bool",
          "name": "exists",
          "type": "bool"
        }
      ],
      "payable": false,
      "stateMutability": "view",
      "type": "function"
    },
    {
      "constant": true,
      "inputs": [
        {
          "internalType": "uint256",
          "name": "documentIndex",
          "type": "uint256"
        },
        {
          "internalType": "uint256",
          "name": "tagIndex",
          "type": "uint256"
        }
      ],
      "name": "validTagIndex",
      "outputs": [
        {
          "internalType": "bool",
          "name": "",
          "type": "bool"
        }
      ],
      "payable": false,
      "stateMutability": "view",
      "type": "function"
    }
  ],
  "bytecode": "0x608060405262000024620000186200004560201b60201c565b6200004d60201b60201c565b6000600160006101000a81548160ff02191690831515021790555062000272565b600033905090565b62000068816000620000ae60201b62002dd21790919060201c565b8073ffffffffffffffffffffffffffffffffffffffff167f6719d08c1888103bea251a4ed56406bd0c3e69723c8a1686e017e7bbe159b6f860405160405180910390a250565b620000c082826200019260201b60201c565b1562000134576040517f08c379a000000000000000000000000000000000000000000000000000000000815260040180806020018281038252601f8152602001807f526f6c65733a206163636f756e7420616c72656164792068617320726f6c650081525060200191505060405180910390fd5b60018260000160008373ffffffffffffffffffffffffffffffffffffffff1673ffffffffffffffffffffffffffffffffffffffff16815260200190815260200160002060006101000a81548160ff0219169083151502179055505050565b60008073ffffffffffffffffffffffffffffffffffffffff168273ffffffffffffffffffffffffffffffffffffffff1614156200021b576040517f08c379a00000000000000000000000000000000000000000000000000000000081526004018080602001828103825260228152602001806200351f6022913960400191505060405180910390fd5b8260000160008373ffffffffffffffffffffffffffffffffffffffff1673ffffffffffffffffffffffffffffffffffffffff16815260200190815260200160002060009054906101000a900460ff16905092915050565b61329d80620002826000396000f3fe608060405234801561001057600080fd5b506004361061012c5760003560e01c80636ef8d66d116100ad5780639ed7d2a6116100715780639ed7d2a6146108be578063b7b8249514610900578063e85e3ac51461091e578063f36fd10814610942578063f50496f414610a075761012c565b80636ef8d66d1461077d57806382dc1ec4146107875780638456cb59146107cb5780638f7991b3146107d55780639201ea0a1461089a5761012c565b806345590ec8116100f457806345590ec81461040157806346fbf68e146104c6578063498b3102146105225780635c975abb146105725780635ec43825146105945761012c565b8063231e9642146101315780632c44639c146101885780632ef9a1601461024d5780633f4ba83a146102715780633f9b250a1461027b575b600080fd5b6101676004803603604081101561014757600080fd5b810190808035906020019092919080359060200190929190505050610a2b565b60405180838152602001821515151581526020019250505060405180910390f35b61024b6004803603604081101561019e57600080fd5b8101908080359060200190929190803590602001906401000000008111156101c557600080fd5b8201836020820111156101d757600080fd5b803590602001918460018302840111640100000000831117156101f957600080fd5b91908080601f016020809104026020016040519081016040528093929190818152602001838380828437600081840152601f19601f820116905080830192505050505050509192919290505050610bcd565b005b610255610e9d565b604051808260ff1660ff16815260200191505060405180910390f35b610279610ea2565b005b6102a76004803603602081101561029157600080fd5b8101908080359060200190929190505050611010565b60405180858152602001806020018060200180602001848103845287818151815260200191508051906020019080838360005b838110156102f55780820151818401526020810190506102da565b50505050905090810190601f1680156103225780820380516001836020036101000a031916815260200191505b50848103835286818151815260200191508051906020019080838360005b8381101561035b578082015181840152602081019050610340565b50505050905090810190601f1680156103885780820380516001836020036101000a031916815260200191505b50848103825285818151815260200191508051906020019080838360005b838110156103c15780820151818401526020810190506103a6565b50505050905090810190601f1680156103ee5780820380516001836020036101000a031916815260200191505b5097505050505050505060405180910390f35b6104c46004803603604081101561041757600080fd5b81019080803590602001909291908035906020019064010000000081111561043e57600080fd5b82018360208201111561045057600080fd5b8035906020019184600183028401116401000000008311171561047257600080fd5b91908080601f016020809104026020016040519081016040528093929190818152602001838380828437600081840152601f19601f8201169050808301925050505050505091929192905050506113d3565b005b610508600480360360208110156104dc57600080fd5b81019080803573ffffffffffffffffffffffffffffffffffffffff1690602001909291905050506117dd565b604051808215151515815260200191505060405180910390f35b6105586004803603604081101561053857600080fd5b8101908080359060200190929190803590602001909291905050506117fa565b604051808215151515815260200191505060405180910390f35b61057a611913565b604051808215151515815260200191505060405180910390f35b61077b600480360360608110156105aa57600080fd5b81019080803590602001906401000000008111156105c757600080fd5b8201836020820111156105d957600080fd5b803590602001918460018302840111640100000000831117156105fb57600080fd5b91908080601f016020809104026020016040519081016040528093929190818152602001838380828437600081840152601f19601f8201169050808301925050505050505091929192908035906020019064010000000081111561065e57600080fd5b82018360208201111561067057600080fd5b8035906020019184600183028401116401000000008311171561069257600080fd5b91908080601f016020809104026020016040519081016040528093929190818152602001838380828437600081840152601f19601f820116905080830192505050505050509192919290803590602001906401000000008111156106f557600080fd5b82018360208201111561070757600080fd5b8035906020019184600183028401116401000000008311171561072957600080fd5b91908080601f016020809104026020016040519081016040528093929190818152602001838380828437600081840152601f19601f82011690508083019250505050505050919291929050505061192a565b005b610785611ecc565b005b6107c96004803603602081101561079d57600080fd5b81019080803573ffffffffffffffffffffffffffffffffffffffff169060200190929190505050611ede565b005b6107d3611f4f565b005b610898600480360360408110156107eb57600080fd5b81019080803590602001909291908035906020019064010000000081111561081257600080fd5b82018360208201111561082457600080fd5b8035906020019184600183028401116401000000008311171561084657600080fd5b91908080601f016020809104026020016040519081016040528093929190818152602001838380828437600081840152601f19601f8201169050808301925050505050505091929192905050506120bd565b005b6108a261244b565b604051808260ff1660ff16815260200191505060405180910390f35b6108ea600480360360208110156108d457600080fd5b8101908080359060200190929190505050612450565b6040518082815260200191505060405180910390f35b61090861256a565b6040518082815260200191505060405180910390f35b6109266125b4565b604051808260ff1660ff16815260200191505060405180910390f35b610a056004803603604081101561095857600080fd5b81019080803590602001909291908035906020019064010000000081111561097f57600080fd5b82018360208201111561099157600080fd5b803590602001918460018302840111640100000000831117156109b357600080fd5b91908080601f016020809104026020016040519081016040528093929190818152602001838380828437600081840152601f19601f8201169050808301925050505050505091929192905050506125b9565b005b610a0f612947565b604051808260ff1660ff16815260200191505060405180910390f35b60008083600260003373ffffffffffffffffffffffffffffffffffffffff1673ffffffffffffffffffffffffffffffffffffffff168152602001908152602001600020805490508110610ac9576040517f08c379a000000000000000000000000000000000000000000000000000000000815260040180806020018281038252602481526020018061310a6024913960400191505060405180910390fd5b6000600260003373ffffffffffffffffffffffffffffffffffffffff1673ffffffffffffffffffffffffffffffffffffffff1681526020019081526020016000208681548110610b1557fe5b90600052602060002090600602016003019050610b3b858261294c90919063ffffffff16565b610bad576040517f08c379a00000000000000000000000000000000000000000000000000000000081526004018080602001828103825260178152602001807f54616720696e646578206f7574206f6620626f756e647300000000000000000081525060200191505060405180910390fd5b610bc0858261296090919063ffffffff16565b9350935050509250929050565b600160009054906101000a900460ff1615610c50576040517f08c379a00000000000000000000000000000000000000000000000000000000081526004018080602001828103825260108152602001807f5061757361626c653a207061757365640000000000000000000000000000000081525060200191505060405180910390fd5b81600260003373ffffffffffffffffffffffffffffffffffffffff1673ffffffffffffffffffffffffffffffffffffffff168152602001908152602001600020805490508110610ceb576040517f08c379a000000000000000000000000000000000000000000000000000000000815260040180806020018281038252602481526020018061310a6024913960400191505060405180910390fd5b6000610cf6836129ae565b90506000600260003373ffffffffffffffffffffffffffffffffffffffff1673ffffffffffffffffffffffffffffffffffffffff1681526020019081526020016000208581548110610d4457fe5b90600052602060002090600602016003019050610d6a82826129bc90919063ffffffff16565b610dbf576040517f08c379a000000000000000000000000000000000000000000000000000000000815260040180806020018281038252602881526020018061312e6028913960400191505060405180910390fd5b610dd282826129e190919063ffffffff16565b507f6c6962b0cc25156ecdd27e543ab8dae6ba2a70bc75221146773730c242269f69848260020160009054906101000a900460ff164260405180806020018460ff1660ff168152602001838152602001828103825285818151815260200191508051906020019080838360005b83811015610e5a578082015181840152602081019050610e3f565b50505050905090810190601f168015610e875780820380516001836020036101000a031916815260200191505b5094505050505060405180910390a15050505050565b602081565b610eb2610ead612a83565b6117dd565b610f07576040517f08c379a00000000000000000000000000000000000000000000000000000000081526004018080602001828103825260308152602001806130da6030913960400191505060405180910390fd5b600160009054906101000a900460ff16610f89576040517f08c379a00000000000000000000000000000000000000000000000000000000081526004018080602001828103825260148152602001807f5061757361626c653a206e6f742070617573656400000000000000000000000081525060200191505060405180910390fd5b6000600160006101000a81548160ff0219169083151502179055507f5db9ee0a495bf2e6ff9c91a7834c1ba4fdd244a5e8aa4e537bd38aeae4b073aa610fcd612a83565b604051808273ffffffffffffffffffffffffffffffffffffffff1673ffffffffffffffffffffffffffffffffffffffff16815260200191505060405180910390a1565b6000606080606084600260003373ffffffffffffffffffffffffffffffffffffffff1673ffffffffffffffffffffffffffffffffffffffff1681526020019081526020016000208054905081106110b2576040517f08c379a000000000000000000000000000000000000000000000000000000000815260040180806020018281038252602481526020018061310a6024913960400191505060405180910390fd5b6000600260003373ffffffffffffffffffffffffffffffffffffffff1673ffffffffffffffffffffffffffffffffffffffff16815260200190815260200160002087815481106110fe57fe5b90600052602060002090600602016000015490506000600260003373ffffffffffffffffffffffffffffffffffffffff1673ffffffffffffffffffffffffffffffffffffffff168152602001908152602001600020888154811061115e57fe5b906000526020600020906006020160010190506000600260003373ffffffffffffffffffffffffffffffffffffffff1673ffffffffffffffffffffffffffffffffffffffff16815260200190815260200160002089815481106111bd57fe5b90600052602060002090600602016002019050600060036000858152602001908152602001600020905083838383828054600181600116156101000203166002900480601f0160208091040260200160405190810160405280929190818152602001828054600181600116156101000203166002900480156112805780601f1061125557610100808354040283529160200191611280565b820191906000526020600020905b81548152906001019060200180831161126357829003601f168201915b50505050509250818054600181600116156101000203166002900480601f01602080910402602001604051908101604052809291908181526020018280546001816001161561010002031660029004801561131c5780601f106112f15761010080835404028352916020019161131c565b820191906000526020600020905b8154815290600101906020018083116112ff57829003601f168201915b50505050509150808054600181600116156101000203166002900480601f0160208091040260200160405190810160405280929190818152602001828054600181600116156101000203166002900480156113b85780601f1061138d576101008083540402835291602001916113b8565b820191906000526020600020905b81548152906001019060200180831161139b57829003601f168201915b50505050509050985098509850985050505050509193509193565b600160009054906101000a900460ff1615611456576040517f08c379a00000000000000000000000000000000000000000000000000000000081526004018080602001828103825260108152602001807f5061757361626c653a207061757365640000000000000000000000000000000081525060200191505060405180910390fd5b808051600010801561146d5750602060ff16815111155b6114c2576040517f08c379a00000000000000000000000000000000000000000000000000000000081526004018080602001828103825260288152602001806131a16028913960400191505060405180910390fd5b82600260003373ffffffffffffffffffffffffffffffffffffffff1673ffffffffffffffffffffffffffffffffffffffff16815260200190815260200160002080549050811061155d576040517f08c379a000000000000000000000000000000000000000000000000000000000815260040180806020018281038252602481526020018061310a6024913960400191505060405180910390fd5b600260003373ffffffffffffffffffffffffffffffffffffffff1673ffffffffffffffffffffffffffffffffffffffff16815260200190815260200160002084815481106115a757fe5b906000526020600020906006020160030160020160009054906101000a900460ff1660ff16600a60ff168110611628576040517f08c379a000000000000000000000000000000000000000000000000000000000815260040180806020018281038252602d815260200180613214602d913960400191505060405180910390fd5b6000611633856129ae565b90506000600260003373ffffffffffffffffffffffffffffffffffffffff1673ffffffffffffffffffffffffffffffffffffffff168152602001908152602001600020878154811061168157fe5b906000526020600020906006020160030190506116a782826129bc90919063ffffffff16565b156116fd576040517f08c379a00000000000000000000000000000000000000000000000000000000081526004018080602001828103825260288152602001806132416028913960400191505060405180910390fd5b6117108282612a8b90919063ffffffff16565b507feaf0aa115b33890ea528765e576d841fa23ebea18c16ab5dc216c2d841f49ddd868260020160009054906101000a900460ff164260405180806020018460ff1660ff168152602001838152602001828103825285818151815260200191508051906020019080838360005b8381101561179857808201518184015260208101905061177d565b50505050905090810190601f1680156117c55780820380516001836020036101000a031916815260200191505b5094505050505060405180910390a150505050505050565b60006117f3826000612b8390919063ffffffff16565b9050919050565b600082600260003373ffffffffffffffffffffffffffffffffffffffff1673ffffffffffffffffffffffffffffffffffffffff168152602001908152602001600020805490508110611897576040517f08c379a000000000000000000000000000000000000000000000000000000000815260040180806020018281038252602481526020018061310a6024913960400191505060405180910390fd5b6000600260003373ffffffffffffffffffffffffffffffffffffffff1673ffffffffffffffffffffffffffffffffffffffff16815260200190815260200160002085815481106118e357fe5b90600052602060002090600602016003019050611909848261294c90919063ffffffff16565b9250505092915050565b6000600160009054906101000a900460ff16905090565b600160009054906101000a900460ff16156119ad576040517f08c379a00000000000000000000000000000000000000000000000000000000081526004018080602001828103825260108152602001807f5061757361626c653a207061757365640000000000000000000000000000000081525060200191505060405180910390fd5b8280516020111580156119c257506040815111155b611a17576040517f08c379a000000000000000000000000000000000000000000000000000000000815260040180806020018281038252602781526020018061308e6027913960400191505060405180910390fd5b8280516000108015611a2e5750602060ff16815111155b611a83576040517f08c379a000000000000000000000000000000000000000000000000000000000815260040180806020018281038252602a815260200180613156602a913960400191505060405180910390fd5b828051600011158015611a9a575060ff8016815111155b611aef576040517f08c379a00000000000000000000000000000000000000000000000000000000081526004018080602001828103825260258152602001806130b56025913960400191505060405180910390fd5b6000866040516020018082805190602001908083835b60208310611b285780518252602082019150602081019050602083039250611b05565b6001836020036101000a038019825116818451168082178552505050505050905001915050604051602081830303815290604052805190602001209050600060036000838152602001908152602001600020905060008180546001816001161561010002031660029004905014611bea576040517f08c379a00000000000000000000000000000000000000000000000000000000081526004018080602001828103825260298152602001806131eb6029913960400191505060405180910390fd5b611bf2612ead565b6000611bfc61256a565b9050600260003373ffffffffffffffffffffffffffffffffffffffff1673ffffffffffffffffffffffffffffffffffffffff16815260200190815260200160002060405180608001604052808681526020018b81526020018a81526020018481525090806001815401808255809150509060018203906000526020600020906006020160009091929091909150600082015181600001556020820151816001019080519060200190611caf929190612eca565b506040820151816002019080519060200190611ccc929190612eca565b506060820151816003016000820151816001019080519060200190611cf2929190612f4a565b5060208201518160020160006101000a81548160ff021916908360ff160217905550505050505089600360008681526020019081526020016000209080519060200190611d40929190612f97565b50837f0bf0410e8d00b80099c3882089e8c4cf6f6a76127ee79abcfff72a5503ddfcd38b8b8b8560405180806020018060200180602001858152602001848103845288818151815260200191508051906020019080838360005b83811015611db5578082015181840152602081019050611d9a565b50505050905090810190601f168015611de25780820380516001836020036101000a031916815260200191505b50848103835287818151815260200191508051906020019080838360005b83811015611e1b578082015181840152602081019050611e00565b50505050905090810190601f168015611e485780820380516001836020036101000a031916815260200191505b50848103825286818151815260200191508051906020019080838360005b83811015611e81578082015181840152602081019050611e66565b50505050905090810190601f168015611eae5780820380516001836020036101000a031916815260200191505b5097505050505050505060405180910390a250505050505050505050565b611edc611ed7612a83565b612c61565b565b611eee611ee9612a83565b6117dd565b611f43576040517f08c379a00000000000000000000000000000000000000000000000000000000081526004018080602001828103825260308152602001806130da6030913960400191505060405180910390fd5b611f4c81612cbb565b50565b611f5f611f5a612a83565b6117dd565b611fb4576040517f08c379a00000000000000000000000000000000000000000000000000000000081526004018080602001828103825260308152602001806130da6030913960400191505060405180910390fd5b600160009054906101000a900460ff1615612037576040517f08c379a00000000000000000000000000000000000000000000000000000000081526004018080602001828103825260108152602001807f5061757361626c653a207061757365640000000000000000000000000000000081525060200191505060405180910390fd5b60018060006101000a81548160ff0219169083151502179055507f62e78cea01bee320cd4e420270b5ea74000d11b0c9f74754ebdbfc544b05a25861207a612a83565b604051808273ffffffffffffffffffffffffffffffffffffffff1673ffffffffffffffffffffffffffffffffffffffff16815260200191505060405180910390a1565b600160009054906101000a900460ff1615612140576040517f08c379a00000000000000000000000000000000000000000000000000000000081526004018080602001828103825260108152602001807f5061757361626c653a207061757365640000000000000000000000000000000081525060200191505060405180910390fd5b81600260003373ffffffffffffffffffffffffffffffffffffffff1673ffffffffffffffffffffffffffffffffffffffff1681526020019081526020016000208054905081106121db576040517f08c379a000000000000000000000000000000000000000000000000000000000815260040180806020018281038252602481526020018061310a6024913960400191505060405180910390fd5b8180516000111580156121f2575060ff8016815111155b612247576040517f08c379a00000000000000000000000000000000000000000000000000000000081526004018080602001828103825260258152602001806130b56025913960400191505060405180910390fd5b6000600260003373ffffffffffffffffffffffffffffffffffffffff1673ffffffffffffffffffffffffffffffffffffffff168152602001908152602001600020858154811061229357fe5b906000526020600020906006020160010190507ffa9831ef4ccb7fd4fa5e7d54c8881ab544c101dd05c1e5146b310cf7931ea0b581854260405180806020018060200184815260200183810383528681815460018160011615610100020316600290048152602001915080546001816001161561010002031660029004801561235d5780601f106123325761010080835404028352916020019161235d565b820191906000526020600020905b81548152906001019060200180831161234057829003601f168201915b5050838103825285818151815260200191508051906020019080838360005b8381101561239757808201518184015260208101905061237c565b50505050905090810190601f1680156123c45780820380516001836020036101000a031916815260200191505b509550505050505060405180910390a183600260003373ffffffffffffffffffffffffffffffffffffffff1673ffffffffffffffffffffffffffffffffffffffff168152602001908152602001600020868154811061241f57fe5b90600052602060002090600602016001019080519060200190612443929190612f97565b505050505050565b60ff81565b600081600260003373ffffffffffffffffffffffffffffffffffffffff1673ffffffffffffffffffffffffffffffffffffffff1681526020019081526020016000208054905081106124ed576040517f08c379a000000000000000000000000000000000000000000000000000000000815260040180806020018281038252602481526020018061310a6024913960400191505060405180910390fd5b6000600260003373ffffffffffffffffffffffffffffffffffffffff1673ffffffffffffffffffffffffffffffffffffffff168152602001908152602001600020848154811061253957fe5b906000526020600020906006020160030190508060020160009054906101000a900460ff1660ff1692505050919050565b6000600260003373ffffffffffffffffffffffffffffffffffffffff1673ffffffffffffffffffffffffffffffffffffffff16815260200190815260200160002080549050905090565b600a81565b600160009054906101000a900460ff161561263c576040517f08c379a00000000000000000000000000000000000000000000000000000000081526004018080602001828103825260108152602001807f5061757361626c653a207061757365640000000000000000000000000000000081525060200191505060405180910390fd5b81600260003373ffffffffffffffffffffffffffffffffffffffff1673ffffffffffffffffffffffffffffffffffffffff1681526020019081526020016000208054905081106126d7576040517f08c379a000000000000000000000000000000000000000000000000000000000815260040180806020018281038252602481526020018061310a6024913960400191505060405180910390fd5b81805160001080156126ee5750602060ff16815111155b612743576040517f08c379a000000000000000000000000000000000000000000000000000000000815260040180806020018281038252602a815260200180613156602a913960400191505060405180910390fd5b6000600260003373ffffffffffffffffffffffffffffffffffffffff1673ffffffffffffffffffffffffffffffffffffffff168152602001908152602001600020858154811061278f57fe5b906000526020600020906006020160010190507fc8e16a6f806056a03e3f892a26e12a7535598a84aabcb7237afbcdaddb302b8f8185426040518080602001806020018481526020018381038352868181546001816001161561010002031660029004815260200191508054600181600116156101000203166002900480156128595780601f1061282e57610100808354040283529160200191612859565b820191906000526020600020905b81548152906001019060200180831161283c57829003601f168201915b5050838103825285818151815260200191508051906020019080838360005b83811015612893578082015181840152602081019050612878565b50505050905090810190601f1680156128c05780820380516001836020036101000a031916815260200191505b509550505050505060405180910390a183600260003373ffffffffffffffffffffffffffffffffffffffff1673ffffffffffffffffffffffffffffffffffffffff168152602001908152602001600020868154811061291b57fe5b9060005260206000209060060201600101908051906020019061293f929190612f97565b505050505050565b602081565b600082600101805490508210905092915050565b60008083600101838154811061297257fe5b9060005260206000200154915083600001600083815260200190815260200160002060010160009054906101000a900460ff1690509250929050565b600060208201519050919050565b6000808360000160008481526020019081526020016000206000015411905092915050565b6000808360000160008481526020019081526020016000206000015490506000811415612a12576000915050612a7d565b8360000160008481526020019081526020016000206000808201600090556001820160006101000a81549060ff0219169055505083600201600081819054906101000a900460ff16809291906001900391906101000a81548160ff021916908360ff16021790555050505b92915050565b600033905090565b600080836000016000848152602001908152602001600020600001549050600184600001600085815260200190815260200160002060010160006101000a81548160ff0219169083151502179055506000811115612aed576001915050612b7d565b836001018054809190600101612b039190613017565b9050600181018460000160008581526020019081526020016000206000018190555082846001018281548110612b3557fe5b906000526020600020018190555083600201600081819054906101000a900460ff168092919060010191906101000a81548160ff021916908360ff1602179055505060009150505b92915050565b60008073ffffffffffffffffffffffffffffffffffffffff168273ffffffffffffffffffffffffffffffffffffffff161415612c0a576040517f08c379a00000000000000000000000000000000000000000000000000000000081526004018080602001828103825260228152602001806131c96022913960400191505060405180910390fd5b8260000160008373ffffffffffffffffffffffffffffffffffffffff1673ffffffffffffffffffffffffffffffffffffffff16815260200190815260200160002060009054906101000a900460ff16905092915050565b612c75816000612d1590919063ffffffff16565b8073ffffffffffffffffffffffffffffffffffffffff167fcd265ebaf09df2871cc7bd4133404a235ba12eff2041bb89d9c714a2621c7c7e60405160405180910390a250565b612ccf816000612dd290919063ffffffff16565b8073ffffffffffffffffffffffffffffffffffffffff167f6719d08c1888103bea251a4ed56406bd0c3e69723c8a1686e017e7bbe159b6f860405160405180910390a250565b612d1f8282612b83565b612d74576040517f08c379a00000000000000000000000000000000000000000000000000000000081526004018080602001828103825260218152602001806131806021913960400191505060405180910390fd5b60008260000160008373ffffffffffffffffffffffffffffffffffffffff1673ffffffffffffffffffffffffffffffffffffffff16815260200190815260200160002060006101000a81548160ff0219169083151502179055505050565b612ddc8282612b83565b15612e4f576040517f08c379a000000000000000000000000000000000000000000000000000000000815260040180806020018281038252601f8152602001807f526f6c65733a206163636f756e7420616c72656164792068617320726f6c650081525060200191505060405180910390fd5b60018260000160008373ffffffffffffffffffffffffffffffffffffffff1673ffffffffffffffffffffffffffffffffffffffff16815260200190815260200160002060006101000a81548160ff0219169083151502179055505050565b604051806040016040528060608152602001600060ff1681525090565b828054600181600116156101000203166002900490600052602060002090601f016020900481019282601f10612f0b57805160ff1916838001178555612f39565b82800160010185558215612f39579182015b82811115612f38578251825591602001919060010190612f1d565b5b509050612f469190613043565b5090565b828054828255906000526020600020908101928215612f86579160200282015b82811115612f85578251825591602001919060010190612f6a565b5b509050612f939190613068565b5090565b828054600181600116156101000203166002900490600052602060002090601f016020900481019282601f10612fd857805160ff1916838001178555613006565b82800160010185558215613006579182015b82811115613005578251825591602001919060010190612fea565b5b5090506130139190613043565b5090565b81548183558181111561303e5781836000526020600020918201910161303d9190613068565b5b505050565b61306591905b80821115613061576000816000905550600101613049565b5090565b90565b61308a91905b8082111561308657600081600090555060010161306e565b5090565b9056fe546865206c656e677468206f6620796f75722049504653206861736820697320696e76616c69644465736372697074696f6e206d757374206e6f742065786365656420323535206279746573506175736572526f6c653a2063616c6c657220646f6573206e6f742068617665207468652050617573657220726f6c6554686520636f6e74656e742072657175657374656420646f6573206e6f74206578697374546869732074616720646f6573206e6f7420657869737420666f72207468697320636f6e74656e745469746c65206d757374206e6f7420626520656d707479206f7220657863656564203332206279746573526f6c65733a206163636f756e7420646f6573206e6f74206861766520726f6c65546167206d757374206e6f7420626520656d707479206f7220657863656564203235206279746573526f6c65733a206163636f756e7420697320746865207a65726f20616464726573735468697320636f6e74656e74206861732070726576696f75736c79206265656e2075706c6f6164656455706c6f6164656420636f6e74656e7420686176652061206c696d6974206f6620313020746167732065616368546869732074616720616c72656164792065786973747320666f72207468697320636f6e74656e74a265627a7a723158202991fe9156e50ef5065073fbb78202724bc2ad3743967b536efb3e96850a4e9464736f6c63430005100032526f6c65733a206163636f756e7420697320746865207a65726f2061646472657373",
  "source": "pragma solidity ^0.5.0;\n\nimport \"@openzeppelin/contracts/lifecycle/Pausable.sol\";\nimport \"./lib/IterableMapping.sol\";\n\ncontract DocumentInfo is Pausable {\n    using IterableMapping for IterableMapping.itmap;\n    /* Constants */\n    // limit length of tag and title to control gas price of storing metadata\n    uint8 public constant MAX_TITLE_LENGTH = 32;\n    uint8 public constant MAX_TAG_LENGTH = 32;\n    uint8 public constant MAX_DESCRIPTION_LENGTH = 255;\n    // Limit to 10 tags per document to conserve gas\n    uint8 public constant MAX_NUM_TAG = 10;\n\n    /* Mappings */\n    // map documents to the owner that uploaded them\n    mapping(address => DocumentMetadata[]) documentsByUploader;\n    // map all documents by id to prevent same content uploaded again\n    mapping(bytes32 => string) documentHashById;\n\n    /* Document Struct */\n    struct DocumentMetadata {\n        bytes32 documentId;\n        string title;\n        string description;\n        IterableMapping.itmap tags; // can't check for unique tag in array, use mapping\n    }\n\n    /* Document Events */\n    event DocumentCreated(bytes32 indexed documentId, string ipfsHash, string title, string description, uint documentIndex);\n    event TitleEdited(string oldTitle, string newTitle, uint timeEdited);\n    event DescriptionEdited(string oldDescription, string newDescription, uint timeEdited);\n    event TagAdded(string tag, uint8 tagCount, uint timeAdded);\n    event TagRemoved(string tag, uint8 tagCount, uint timeRemoved);\n\n    /* Length Constraint Modifiers */\n    /**\n     * @notice Require a ipfs hash length between 32 and 64\n     * @dev Ipfs Hash have different lengths from different hashing algorithms, but cryptographic hashes generally have length limit of 64 bytes\n     */\n    modifier verifyIPFSHash (string memory _ipfsHash) {\n        require(\n            32 <= bytes(_ipfsHash).length && bytes(_ipfsHash).length <= 64,\n            'The length of your IPFS hash is invalid'\n        );\n        _;\n    }\n\n    /**\n     * @notice Check title length constraints\n     * @dev Recommended to store on ipfs if metadata is too large\n     */\n    modifier verifyTitleLength (string memory _title) {\n        require(\n            0 < bytes(_title).length && bytes(_title).length <= MAX_TITLE_LENGTH,\n            'Title must not be empty or exceed 32 bytes'\n        );\n        _;\n    }\n        /**\n     * @notice Check description length constraints\n     */\n    modifier verifyDescriptionLength (string memory _description) {\n        require(\n            0 <= bytes(_description).length && bytes(_description).length <= MAX_DESCRIPTION_LENGTH,\n            'Description must not exceed 255 bytes'\n        );\n        _;\n    }\n    /**\n     * @notice Check tag length constraints\n     */\n    modifier verifyTagLength (string memory _tag) {\n        require(\n            0 < bytes(_tag).length && bytes(_tag).length <= MAX_TAG_LENGTH,\n            'Tag must not be empty or exceed 25 bytes'\n        );\n        _;\n    }\n    /**\n     * @notice Check each document do not exceed the total number of tags\n     */\n    modifier verifyNumTags (uint tagCount) {\n        require(\n            tagCount < MAX_NUM_TAG,\n            'Uploaded content have a limit of 10 tags each'\n        );\n        _;\n    }\n\n    /* Integrity Check Modifier */\n    /**\n     * @notice Checks if the document has been uploaded by the owner\n     * @dev Documents can not be deleted, so the array will not contain gaps with empty info\n     */\n    modifier hasUploaded(uint documentIndex) { \n        require(\n            documentIndex < documentsByUploader[msg.sender].length,\n            'The content requested does not exist'\n        );\n        _;\n    }\n\n    /* State Modifying Functions */\n    /**\n     * @notice Creates a new document for the caller of this function\n     * @dev DocumentCreated event emitted\n     * @dev documentId generated using the keccak256 hash of the ipfs hash, which is longer than 32 bytes\n     * @param _ipfsHash the ipfs hash of the document\n     * @param _title the title of the document\n     */\n     function createDocument(string memory _ipfsHash, string memory _title, string memory _description)\n        public\n        whenNotPaused()\n        verifyIPFSHash(_ipfsHash)\n        verifyTitleLength(_title)\n        verifyDescriptionLength(_description)\n        {\n            bytes32 _documentId = keccak256(abi.encodePacked(_ipfsHash));\n            string storage ipfsHash = documentHashById[_documentId];\n            // only create document if the content has not been uploaded before\n            require(bytes(ipfsHash).length == 0, 'This content has previously been uploaded');\n            // adding hash and metadata\n            IterableMapping.itmap memory _tags;\n            uint documentIndex = getNumberOfDocuments();\n            documentsByUploader[msg.sender].push(DocumentMetadata(_documentId, _title, _description, _tags));\n            documentHashById[_documentId] = _ipfsHash;\n\n            emit DocumentCreated(_documentId, _ipfsHash, _title, _description, documentIndex);\n        }\n\n    /**\n     * @notice Allow users to edit the title of a document they own\n     * @dev TitleEdited event emitted\n     * @param documentIndex The index of the document in the caller's document list\n     * @param _title The new title to rename the document into\n     */\n     function editTitle(uint documentIndex, string memory _title)\n        public\n        whenNotPaused()\n        hasUploaded(documentIndex)\n        verifyTitleLength(_title)\n    {\n        string storage oldTitle = documentsByUploader[msg.sender][documentIndex].title;\n        // emit event before changing the storage reference or else\n        // oldTitle value will be pointing to the value of the new title\n        emit TitleEdited(oldTitle, _title, now);\n        \n        documentsByUploader[msg.sender][documentIndex].title = _title;\n\n    }\n\n    function editDescription(uint documentIndex, string memory _description)\n        public\n        whenNotPaused()\n        hasUploaded(documentIndex)\n        verifyDescriptionLength(_description)\n    {\n        string storage oldDescription = documentsByUploader[msg.sender][documentIndex].title;\n        emit DescriptionEdited(oldDescription, _description, now);\n\n        documentsByUploader[msg.sender][documentIndex].title = _description;\n    }\n\n    /**\n     * @notice Transforms string into a fixed bytes32 array\n     * @dev String conversion to bytes32 not allowed as the string might truncate, use assembly\n     * @param _tag The tag to convert to bytes32 array\n     * @return A bytes32 array containing the tag \n     */\n    function tagToFixedByteArray(string memory _tag) private pure returns (bytes32 tag) {\n        assembly { tag := mload(add(_tag, 32)) }\n    }\n\n    /**\n     * @notice Adds a tag to a document the caller owns\n     * @dev To ensure uniqueness of tags, a tagId is generated using the keccak256 of the tag to map the tags\n     * @dev TagAdded event emitted\n     * @param documentIndex The index of the document in the caller's document list\n     * @param _tag The tag the caller wants to put for a document\n     */\n    function addTag(uint documentIndex, string memory _tag)\n        public\n        whenNotPaused()\n        verifyTagLength(_tag)\n        hasUploaded(documentIndex)\n        verifyNumTags(documentsByUploader[msg.sender][documentIndex].tags.size)\n    {\n        bytes32 tag = tagToFixedByteArray(_tag);\n        IterableMapping.itmap storage tags = documentsByUploader[msg.sender][documentIndex].tags;\n        // Prevent duplication of tags\n        require(\n            !tags.contains(tag),\n            'This tag already exists for this content'\n        );\n        \n        tags.insert(tag);\n\n        emit TagAdded(_tag, tags.size, now);\n    }\n\n    /**\n     * @notice Removes the tag for a caller's document by the contents of the tag\n     * @dev TagRemoved event emitted\n     * @param documentIndex The index of the document in the caller's document list\n     * @param _tag The tag to be removed for the document\n     */\n    function removeTag(uint documentIndex, string memory _tag)\n        public\n        whenNotPaused()\n        hasUploaded(documentIndex)\n    {\n        bytes32 tag = tagToFixedByteArray(_tag);\n        IterableMapping.itmap storage tags = documentsByUploader[msg.sender][documentIndex].tags;\n        // Only delete if this tag has been added before\n        require(\n            tags.contains(tag),\n            'This tag does not exist for this content'\n        );\n        // Delete tag from map\n        tags.remove(tag);\n\n        emit TagRemoved(_tag, tags.size, now);\n    }\n\n    /* View Functions */\n    /**\n     * @notice Gets the number of documents the caller has uploaded\n     * @return Number of documents created by caller\n     */\n    function getNumberOfDocuments() public view returns (uint) {\n         return documentsByUploader[msg.sender].length;\n    }\n\n    /**\n     * @notice Gets data for a document in the caller's document list\n     * @param documentIndex The index of the document in the caller's document list\n     * @return The document id, title, description and ipfs hash the document specified\n     */\n     function getDocument(uint documentIndex)\n        public\n        view\n        hasUploaded(documentIndex)\n        returns (\n            bytes32 _documentId,\n            string memory _title,\n            string memory _description,\n            string memory _ipfsHash\n        )\n    {\n        bytes32 documentId = documentsByUploader[msg.sender][documentIndex].documentId;\n        string storage title = documentsByUploader[msg.sender][documentIndex].title;\n        string storage description = documentsByUploader[msg.sender][documentIndex].description;\n        string storage ipfsHash = documentHashById[documentId];\n        return (documentId, title, description, ipfsHash);\n    }\n\n    /**\n     * @notice Gets the number of tags for a specific document\n     * @param documentIndex The index of the document in the caller's document list\n     * @return Number tags in a document created by caller\n     */\n    function getNumberOfTags(uint documentIndex) \n        public\n        view\n        hasUploaded(documentIndex)\n        returns (uint tagIndex) \n    {\n        IterableMapping.itmap storage tags = documentsByUploader[msg.sender][documentIndex].tags;\n        return tags.size;\n    }\n\n    /**\n     * @notice Gets data for a document in the caller's document list\n     * @param documentIndex The index of the document in the caller's document list\n     * @param tagIndex The index of the tag in the document specified by the caller\n     * @return The tag id and tag string\n     */\n    function getTagByIndex(uint documentIndex, uint tagIndex)\n        public\n        view\n        hasUploaded(documentIndex)\n        returns (bytes32 tag, bool exists)\n    {\n        IterableMapping.itmap storage tags = documentsByUploader[msg.sender][documentIndex].tags;\n        require(\n            tags.valid(tagIndex),\n            'Tag index out of bounds'\n        );\n        return tags.get(tagIndex);     \n    }\n\n    /**\n     * @notice Returns whether the tag index is within bounds\n     * @dev This checks if the tag index is smaller than the array length of all tags, including deleted ones\n     * @param documentIndex The index of the document in the caller's document list\n     * @param tagIndex The tag index to check if it is valid\n     * @return boolean, true for valid tag, false for invalid\n     */\n    function validTagIndex(uint documentIndex, uint tagIndex)\n    public\n    view\n    hasUploaded(documentIndex)\n    returns (bool) {\n        IterableMapping.itmap storage tags = documentsByUploader[msg.sender][documentIndex].tags;\n\n        return tags.valid(tagIndex);\n    }\n}",
  "sourcePath": "/home/apple/proof-of-existence/contracts/DocumentInfo.sol",
  "compiler": {
    "name": "solc",
    "version": "0.5.16+commit.9c3226ce.Emscripten.clang"
  },
  "schemaVersion": "3.0.22",
  "updatedAt": "2020-01-27T02:35:29.282Z",
  "networkType": "ethereum",
  "devdoc": {
    "methods": {
      "addTag(uint256,string)": {
        "details": "To ensure uniqueness of tags, a tagId is generated using the keccak256 of the tag to map the tagsTagAdded event emitted",
        "params": {
          "_tag": "The tag the caller wants to put for a document",
          "documentIndex": "The index of the document in the caller's document list"
        }
      },
      "createDocument(string,string,string)": {
        "details": "DocumentCreated event emitteddocumentId generated using the keccak256 hash of the ipfs hash, which is longer than 32 bytes",
        "params": {
          "_ipfsHash": "the ipfs hash of the document",
          "_title": "the title of the document"
        }
      },
      "editTitle(uint256,string)": {
        "details": "TitleEdited event emitted",
        "params": {
          "_title": "The new title to rename the document into",
          "documentIndex": "The index of the document in the caller's document list"
        }
      },
      "getDocument(uint256)": {
        "params": {
          "documentIndex": "The index of the document in the caller's document list"
        },
        "return": "The document id, title, description and ipfs hash the document specified"
      },
      "getNumberOfDocuments()": {
        "return": "Number of documents created by caller"
      },
      "getNumberOfTags(uint256)": {
        "params": {
          "documentIndex": "The index of the document in the caller's document list"
        },
        "return": "Number tags in a document created by caller"
      },
      "getTagByIndex(uint256,uint256)": {
        "params": {
          "documentIndex": "The index of the document in the caller's document list",
          "tagIndex": "The index of the tag in the document specified by the caller"
        },
        "return": "The tag id and tag string"
      },
      "pause()": {
        "details": "Called by a pauser to pause, triggers stopped state."
      },
      "paused()": {
        "details": "Returns true if the contract is paused, and false otherwise."
      },
      "removeTag(uint256,string)": {
        "details": "TagRemoved event emitted",
        "params": {
          "_tag": "The tag to be removed for the document",
          "documentIndex": "The index of the document in the caller's document list"
        }
      },
      "unpause()": {
        "details": "Called by a pauser to unpause, returns to normal state."
      },
      "validTagIndex(uint256,uint256)": {
        "details": "This checks if the tag index is smaller than the array length of all tags, including deleted ones",
        "params": {
          "documentIndex": "The index of the document in the caller's document list",
          "tagIndex": "The tag index to check if it is valid"
        },
        "return": "boolean, true for valid tag, false for invalid"
      }
    }
  },
  "userdoc": {
    "methods": {
      "addTag(uint256,string)": {
        "notice": "Adds a tag to a document the caller owns"
      },
      "createDocument(string,string,string)": {
        "notice": "Creates a new document for the caller of this function"
      },
      "editTitle(uint256,string)": {
        "notice": "Allow users to edit the title of a document they own"
      },
      "getDocument(uint256)": {
        "notice": "Gets data for a document in the caller's document list"
      },
      "getNumberOfDocuments()": {
        "notice": "Gets the number of documents the caller has uploaded"
      },
      "getNumberOfTags(uint256)": {
        "notice": "Gets the number of tags for a specific document"
      },
      "getTagByIndex(uint256,uint256)": {
        "notice": "Gets data for a document in the caller's document list"
      },
      "removeTag(uint256,string)": {
        "notice": "Removes the tag for a caller's document by the contents of the tag"
      },
      "validTagIndex(uint256,uint256)": {
        "notice": "Returns whether the tag index is within bounds"
      }
    }
  }
}