{
  "contractName": "DocumentInfo",
  "abi": [
    {
      "anonymous": false,
      "inputs": [
        {
          "indexed": true,
          "internalType": "bytes32",
          "name": "documentId",
          "type": "bytes32"
        },
        {
          "indexed": false,
          "internalType": "string",
          "name": "ipfsHash",
          "type": "string"
        },
        {
          "indexed": false,
          "internalType": "string",
          "name": "title",
          "type": "string"
        }
      ],
      "name": "DocumentCreated",
      "type": "event"
    },
    {
      "anonymous": false,
      "inputs": [
        {
          "indexed": false,
          "internalType": "address",
          "name": "account",
          "type": "address"
        }
      ],
      "name": "Paused",
      "type": "event"
    },
    {
      "anonymous": false,
      "inputs": [
        {
          "indexed": true,
          "internalType": "address",
          "name": "account",
          "type": "address"
        }
      ],
      "name": "PauserAdded",
      "type": "event"
    },
    {
      "anonymous": false,
      "inputs": [
        {
          "indexed": true,
          "internalType": "address",
          "name": "account",
          "type": "address"
        }
      ],
      "name": "PauserRemoved",
      "type": "event"
    },
    {
      "anonymous": false,
      "inputs": [
        {
          "indexed": false,
          "internalType": "string",
          "name": "tag",
          "type": "string"
        },
        {
          "indexed": false,
          "internalType": "uint8",
          "name": "tagCount",
          "type": "uint8"
        },
        {
          "indexed": false,
          "internalType": "uint256",
          "name": "timeAdded",
          "type": "uint256"
        }
      ],
      "name": "TagAdded",
      "type": "event"
    },
    {
      "anonymous": false,
      "inputs": [
        {
          "indexed": false,
          "internalType": "string",
          "name": "tag",
          "type": "string"
        },
        {
          "indexed": false,
          "internalType": "uint8",
          "name": "tagCount",
          "type": "uint8"
        },
        {
          "indexed": false,
          "internalType": "uint256",
          "name": "timeRemoved",
          "type": "uint256"
        }
      ],
      "name": "TagRemoved",
      "type": "event"
    },
    {
      "anonymous": false,
      "inputs": [
        {
          "indexed": false,
          "internalType": "string",
          "name": "oldTitle",
          "type": "string"
        },
        {
          "indexed": false,
          "internalType": "string",
          "name": "newTitle",
          "type": "string"
        },
        {
          "indexed": false,
          "internalType": "uint256",
          "name": "timeEdited",
          "type": "uint256"
        }
      ],
      "name": "TitleEdited",
      "type": "event"
    },
    {
      "anonymous": false,
      "inputs": [
        {
          "indexed": false,
          "internalType": "address",
          "name": "account",
          "type": "address"
        }
      ],
      "name": "Unpaused",
      "type": "event"
    },
    {
      "constant": true,
      "inputs": [],
      "name": "MAX_NUM_TAG",
      "outputs": [
        {
          "internalType": "uint8",
          "name": "",
          "type": "uint8"
        }
      ],
      "payable": false,
      "stateMutability": "view",
      "type": "function"
    },
    {
      "constant": true,
      "inputs": [],
      "name": "MAX_TAG_LENGTH",
      "outputs": [
        {
          "internalType": "uint8",
          "name": "",
          "type": "uint8"
        }
      ],
      "payable": false,
      "stateMutability": "view",
      "type": "function"
    },
    {
      "constant": true,
      "inputs": [],
      "name": "MAX_TITLE_LENGTH",
      "outputs": [
        {
          "internalType": "uint8",
          "name": "",
          "type": "uint8"
        }
      ],
      "payable": false,
      "stateMutability": "view",
      "type": "function"
    },
    {
      "constant": false,
      "inputs": [
        {
          "internalType": "address",
          "name": "account",
          "type": "address"
        }
      ],
      "name": "addPauser",
      "outputs": [],
      "payable": false,
      "stateMutability": "nonpayable",
      "type": "function"
    },
    {
      "constant": true,
      "inputs": [
        {
          "internalType": "address",
          "name": "account",
          "type": "address"
        }
      ],
      "name": "isPauser",
      "outputs": [
        {
          "internalType": "bool",
          "name": "",
          "type": "bool"
        }
      ],
      "payable": false,
      "stateMutability": "view",
      "type": "function"
    },
    {
      "constant": false,
      "inputs": [],
      "name": "pause",
      "outputs": [],
      "payable": false,
      "stateMutability": "nonpayable",
      "type": "function"
    },
    {
      "constant": true,
      "inputs": [],
      "name": "paused",
      "outputs": [
        {
          "internalType": "bool",
          "name": "",
          "type": "bool"
        }
      ],
      "payable": false,
      "stateMutability": "view",
      "type": "function"
    },
    {
      "constant": false,
      "inputs": [],
      "name": "renouncePauser",
      "outputs": [],
      "payable": false,
      "stateMutability": "nonpayable",
      "type": "function"
    },
    {
      "constant": false,
      "inputs": [],
      "name": "unpause",
      "outputs": [],
      "payable": false,
      "stateMutability": "nonpayable",
      "type": "function"
    },
    {
      "constant": false,
      "inputs": [
        {
          "internalType": "string",
          "name": "_ipfsHash",
          "type": "string"
        },
        {
          "internalType": "string",
          "name": "_title",
          "type": "string"
        }
      ],
      "name": "createDocument",
      "outputs": [],
      "payable": false,
      "stateMutability": "nonpayable",
      "type": "function"
    },
    {
      "constant": false,
      "inputs": [
        {
          "internalType": "uint256",
          "name": "documentIndex",
          "type": "uint256"
        },
        {
          "internalType": "string",
          "name": "_title",
          "type": "string"
        }
      ],
      "name": "editTitle",
      "outputs": [],
      "payable": false,
      "stateMutability": "nonpayable",
      "type": "function"
    },
    {
      "constant": false,
      "inputs": [
        {
          "internalType": "uint256",
          "name": "documentIndex",
          "type": "uint256"
        },
        {
          "internalType": "string",
          "name": "_tag",
          "type": "string"
        }
      ],
      "name": "addTag",
      "outputs": [],
      "payable": false,
      "stateMutability": "nonpayable",
      "type": "function"
    },
    {
      "constant": false,
      "inputs": [
        {
          "internalType": "uint256",
          "name": "documentIndex",
          "type": "uint256"
        },
        {
          "internalType": "string",
          "name": "_tag",
          "type": "string"
        }
      ],
      "name": "removeTag",
      "outputs": [],
      "payable": false,
      "stateMutability": "nonpayable",
      "type": "function"
    },
    {
      "constant": true,
      "inputs": [],
      "name": "getNumberOfDocuments",
      "outputs": [
        {
          "internalType": "uint256",
          "name": "",
          "type": "uint256"
        }
      ],
      "payable": false,
      "stateMutability": "view",
      "type": "function"
    },
    {
      "constant": true,
      "inputs": [
        {
          "internalType": "uint256",
          "name": "documentIndex",
          "type": "uint256"
        }
      ],
      "name": "getDocument",
      "outputs": [
        {
          "internalType": "bytes32",
          "name": "_documentId",
          "type": "bytes32"
        },
        {
          "internalType": "string",
          "name": "_title",
          "type": "string"
        },
        {
          "internalType": "string",
          "name": "_ipfsHash",
          "type": "string"
        }
      ],
      "payable": false,
      "stateMutability": "view",
      "type": "function"
    },
    {
      "constant": true,
      "inputs": [
        {
          "internalType": "uint256",
          "name": "documentIndex",
          "type": "uint256"
        }
      ],
      "name": "getNumberOfTags",
      "outputs": [
        {
          "internalType": "uint256",
          "name": "tagIndex",
          "type": "uint256"
        }
      ],
      "payable": false,
      "stateMutability": "view",
      "type": "function"
    },
    {
      "constant": true,
      "inputs": [
        {
          "internalType": "uint256",
          "name": "documentIndex",
          "type": "uint256"
        },
        {
          "internalType": "uint256",
          "name": "tagIndex",
          "type": "uint256"
        }
      ],
      "name": "getTagByIndex",
      "outputs": [
        {
          "internalType": "bytes32",
          "name": "tag",
          "type": "bytes32"
        },
        {
          "internalType": "bool",
          "name": "exists",
          "type": "bool"
        }
      ],
      "payable": false,
      "stateMutability": "view",
      "type": "function"
    },
    {
      "constant": true,
      "inputs": [
        {
          "internalType": "uint256",
          "name": "documentIndex",
          "type": "uint256"
        },
        {
          "internalType": "uint256",
          "name": "tagIndex",
          "type": "uint256"
        }
      ],
      "name": "validTagIndex",
      "outputs": [
        {
          "internalType": "bool",
          "name": "",
          "type": "bool"
        }
      ],
      "payable": false,
      "stateMutability": "view",
      "type": "function"
    }
  ],
  "bytecode": "0x608060405262000024620000186200004560201b60201c565b6200004d60201b60201c565b6000600160006101000a81548160ff02191690831515021790555062000272565b600033905090565b62000068816000620000ae60201b620026271790919060201c565b8073ffffffffffffffffffffffffffffffffffffffff167f6719d08c1888103bea251a4ed56406bd0c3e69723c8a1686e017e7bbe159b6f860405160405180910390a250565b620000c082826200019260201b60201c565b1562000134576040517f08c379a000000000000000000000000000000000000000000000000000000000815260040180806020018281038252601f8152602001807f526f6c65733a206163636f756e7420616c72656164792068617320726f6c650081525060200191505060405180910390fd5b60018260000160008373ffffffffffffffffffffffffffffffffffffffff1673ffffffffffffffffffffffffffffffffffffffff16815260200190815260200160002060006101000a81548160ff0219169083151502179055505050565b60008073ffffffffffffffffffffffffffffffffffffffff168273ffffffffffffffffffffffffffffffffffffffff1614156200021b576040517f08c379a000000000000000000000000000000000000000000000000000000000815260040180806020018281038252602281526020018062002d506022913960400191505060405180910390fd5b8260000160008373ffffffffffffffffffffffffffffffffffffffff1673ffffffffffffffffffffffffffffffffffffffff16815260200190815260200160002060009054906101000a900460ff16905092915050565b612ace80620002826000396000f3fe608060405234801561001057600080fd5b50600436106101165760003560e01c80636ef8d66d116100a25780639ed7d2a6116100715780639ed7d2a6146106bc578063b7b82495146106fe578063e85e3ac51461071c578063f36fd10814610740578063f50496f41461080557610116565b80636ef8d66d1461051257806382dc1ec41461051c5780638456cb591461056057806393ebc4c81461056a57610116565b80633f9b250a116100e95780633f9b250a1461026557806345590ec81461037f57806346fbf68e14610444578063498b3102146104a05780635c975abb146104f057610116565b8063231e96421461011b5780632c44639c146101725780632ef9a160146102375780633f4ba83a1461025b575b600080fd5b6101516004803603604081101561013157600080fd5b810190808035906020019092919080359060200190929190505050610829565b60405180838152602001821515151581526020019250505060405180910390f35b6102356004803603604081101561018857600080fd5b8101908080359060200190929190803590602001906401000000008111156101af57600080fd5b8201836020820111156101c157600080fd5b803590602001918460018302840111640100000000831117156101e357600080fd5b91908080601f016020809104026020016040519081016040528093929190818152602001838380828437600081840152601f19601f8201169050808301925050505050505091929192905050506109cb565b005b61023f610c9b565b604051808260ff1660ff16815260200191505060405180910390f35b610263610ca0565b005b6102916004803603602081101561027b57600080fd5b8101908080359060200190929190505050610e0e565b604051808481526020018060200180602001838103835285818151815260200191508051906020019080838360005b838110156102db5780820151818401526020810190506102c0565b50505050905090810190601f1680156103085780820380516001836020036101000a031916815260200191505b50838103825284818151815260200191508051906020019080838360005b83811015610341578082015181840152602081019050610326565b50505050905090810190601f16801561036e5780820380516001836020036101000a031916815260200191505b509550505050505060405180910390f35b6104426004803603604081101561039557600080fd5b8101908080359060200190929190803590602001906401000000008111156103bc57600080fd5b8201836020820111156103ce57600080fd5b803590602001918460018302840111640100000000831117156103f057600080fd5b91908080601f016020809104026020016040519081016040528093929190818152602001838380828437600081840152601f19601f8201169050808301925050505050505091929192905050506110d0565b005b6104866004803603602081101561045a57600080fd5b81019080803573ffffffffffffffffffffffffffffffffffffffff1690602001909291905050506114da565b604051808215151515815260200191505060405180910390f35b6104d6600480360360408110156104b657600080fd5b8101908080359060200190929190803590602001909291905050506114f7565b604051808215151515815260200191505060405180910390f35b6104f8611610565b604051808215151515815260200191505060405180910390f35b61051a611627565b005b61055e6004803603602081101561053257600080fd5b81019080803573ffffffffffffffffffffffffffffffffffffffff169060200190929190505050611639565b005b6105686116aa565b005b6106ba6004803603604081101561058057600080fd5b810190808035906020019064010000000081111561059d57600080fd5b8201836020820111156105af57600080fd5b803590602001918460018302840111640100000000831117156105d157600080fd5b91908080601f016020809104026020016040519081016040528093929190818152602001838380828437600081840152601f19601f8201169050808301925050505050505091929192908035906020019064010000000081111561063457600080fd5b82018360208201111561064657600080fd5b8035906020019184600183028401116401000000008311171561066857600080fd5b91908080601f016020809104026020016040519081016040528093929190818152602001838380828437600081840152601f19601f820116905080830192505050505050509192919290505050611818565b005b6106e8600480360360208110156106d257600080fd5b8101908080359060200190929190505050611ca6565b6040518082815260200191505060405180910390f35b610706611dc0565b6040518082815260200191505060405180910390f35b610724611e0a565b604051808260ff1660ff16815260200191505060405180910390f35b6108036004803603604081101561075657600080fd5b81019080803590602001909291908035906020019064010000000081111561077d57600080fd5b82018360208201111561078f57600080fd5b803590602001918460018302840111640100000000831117156107b157600080fd5b91908080601f016020809104026020016040519081016040528093929190818152602001838380828437600081840152601f19601f820116905080830192505050505050509192919290505050611e0f565b005b61080d61219c565b604051808260ff1660ff16815260200191505060405180910390f35b60008083600260003373ffffffffffffffffffffffffffffffffffffffff1673ffffffffffffffffffffffffffffffffffffffff1681526020019081526020016000208054905081106108c7576040517f08c379a00000000000000000000000000000000000000000000000000000000081526004018080602001828103825260248152602001806129656024913960400191505060405180910390fd5b6000600260003373ffffffffffffffffffffffffffffffffffffffff1673ffffffffffffffffffffffffffffffffffffffff168152602001908152602001600020868154811061091357fe5b9060005260206000209060050201600201905061093985826121a190919063ffffffff16565b6109ab576040517f08c379a00000000000000000000000000000000000000000000000000000000081526004018080602001828103825260178152602001807f54616720696e646578206f7574206f6620626f756e647300000000000000000081525060200191505060405180910390fd5b6109be85826121b590919063ffffffff16565b9350935050509250929050565b600160009054906101000a900460ff1615610a4e576040517f08c379a00000000000000000000000000000000000000000000000000000000081526004018080602001828103825260108152602001807f5061757361626c653a207061757365640000000000000000000000000000000081525060200191505060405180910390fd5b81600260003373ffffffffffffffffffffffffffffffffffffffff1673ffffffffffffffffffffffffffffffffffffffff168152602001908152602001600020805490508110610ae9576040517f08c379a00000000000000000000000000000000000000000000000000000000081526004018080602001828103825260248152602001806129656024913960400191505060405180910390fd5b6000610af483612203565b90506000600260003373ffffffffffffffffffffffffffffffffffffffff1673ffffffffffffffffffffffffffffffffffffffff1681526020019081526020016000208581548110610b4257fe5b90600052602060002090600502016002019050610b68828261221190919063ffffffff16565b610bbd576040517f08c379a00000000000000000000000000000000000000000000000000000000081526004018080602001828103825260288152602001806129896028913960400191505060405180910390fd5b610bd0828261223690919063ffffffff16565b507f6c6962b0cc25156ecdd27e543ab8dae6ba2a70bc75221146773730c242269f69848260020160009054906101000a900460ff164260405180806020018460ff1660ff168152602001838152602001828103825285818151815260200191508051906020019080838360005b83811015610c58578082015181840152602081019050610c3d565b50505050905090810190601f168015610c855780820380516001836020036101000a031916815260200191505b5094505050505060405180910390a15050505050565b60ff81565b610cb0610cab6122d8565b6114da565b610d05576040517f08c379a00000000000000000000000000000000000000000000000000000000081526004018080602001828103825260308152602001806129356030913960400191505060405180910390fd5b600160009054906101000a900460ff16610d87576040517f08c379a00000000000000000000000000000000000000000000000000000000081526004018080602001828103825260148152602001807f5061757361626c653a206e6f742070617573656400000000000000000000000081525060200191505060405180910390fd5b6000600160006101000a81548160ff0219169083151502179055507f5db9ee0a495bf2e6ff9c91a7834c1ba4fdd244a5e8aa4e537bd38aeae4b073aa610dcb6122d8565b604051808273ffffffffffffffffffffffffffffffffffffffff1673ffffffffffffffffffffffffffffffffffffffff16815260200191505060405180910390a1565b600060608083600260003373ffffffffffffffffffffffffffffffffffffffff1673ffffffffffffffffffffffffffffffffffffffff168152602001908152602001600020805490508110610eae576040517f08c379a00000000000000000000000000000000000000000000000000000000081526004018080602001828103825260248152602001806129656024913960400191505060405180910390fd5b6000600260003373ffffffffffffffffffffffffffffffffffffffff1673ffffffffffffffffffffffffffffffffffffffff1681526020019081526020016000208681548110610efa57fe5b90600052602060002090600502016000015490506000600260003373ffffffffffffffffffffffffffffffffffffffff1673ffffffffffffffffffffffffffffffffffffffff1681526020019081526020016000208781548110610f5a57fe5b906000526020600020906005020160010190506000600360008481526020019081526020016000209050828282818054600181600116156101000203166002900480601f01602080910402602001604051908101604052809291908181526020018280546001816001161561010002031660029004801561101c5780601f10610ff15761010080835404028352916020019161101c565b820191906000526020600020905b815481529060010190602001808311610fff57829003601f168201915b50505050509150808054600181600116156101000203166002900480601f0160208091040260200160405190810160405280929190818152602001828054600181600116156101000203166002900480156110b85780601f1061108d576101008083540402835291602001916110b8565b820191906000526020600020905b81548152906001019060200180831161109b57829003601f168201915b50505050509050965096509650505050509193909250565b600160009054906101000a900460ff1615611153576040517f08c379a00000000000000000000000000000000000000000000000000000000081526004018080602001828103825260108152602001807f5061757361626c653a207061757365640000000000000000000000000000000081525060200191505060405180910390fd5b808051600010801561116a5750602060ff16815111155b6111bf576040517f08c379a00000000000000000000000000000000000000000000000000000000081526004018080602001828103825260288152602001806129d26028913960400191505060405180910390fd5b82600260003373ffffffffffffffffffffffffffffffffffffffff1673ffffffffffffffffffffffffffffffffffffffff16815260200190815260200160002080549050811061125a576040517f08c379a00000000000000000000000000000000000000000000000000000000081526004018080602001828103825260248152602001806129656024913960400191505060405180910390fd5b600260003373ffffffffffffffffffffffffffffffffffffffff1673ffffffffffffffffffffffffffffffffffffffff16815260200190815260200160002084815481106112a457fe5b906000526020600020906005020160020160020160009054906101000a900460ff1660ff16600a60ff168110611325576040517f08c379a000000000000000000000000000000000000000000000000000000000815260040180806020018281038252602d815260200180612a45602d913960400191505060405180910390fd5b600061133085612203565b90506000600260003373ffffffffffffffffffffffffffffffffffffffff1673ffffffffffffffffffffffffffffffffffffffff168152602001908152602001600020878154811061137e57fe5b906000526020600020906005020160020190506113a4828261221190919063ffffffff16565b156113fa576040517f08c379a0000000000000000000000000000000000000000000000000000000008152600401808060200182810382526028815260200180612a726028913960400191505060405180910390fd5b61140d82826122e090919063ffffffff16565b507feaf0aa115b33890ea528765e576d841fa23ebea18c16ab5dc216c2d841f49ddd868260020160009054906101000a900460ff164260405180806020018460ff1660ff168152602001838152602001828103825285818151815260200191508051906020019080838360005b8381101561149557808201518184015260208101905061147a565b50505050905090810190601f1680156114c25780820380516001836020036101000a031916815260200191505b5094505050505060405180910390a150505050505050565b60006114f08260006123d890919063ffffffff16565b9050919050565b600082600260003373ffffffffffffffffffffffffffffffffffffffff1673ffffffffffffffffffffffffffffffffffffffff168152602001908152602001600020805490508110611594576040517f08c379a00000000000000000000000000000000000000000000000000000000081526004018080602001828103825260248152602001806129656024913960400191505060405180910390fd5b6000600260003373ffffffffffffffffffffffffffffffffffffffff1673ffffffffffffffffffffffffffffffffffffffff16815260200190815260200160002085815481106115e057fe5b9060005260206000209060050201600201905061160684826121a190919063ffffffff16565b9250505092915050565b6000600160009054906101000a900460ff16905090565b6116376116326122d8565b6124b6565b565b6116496116446122d8565b6114da565b61169e576040517f08c379a00000000000000000000000000000000000000000000000000000000081526004018080602001828103825260308152602001806129356030913960400191505060405180910390fd5b6116a781612510565b50565b6116ba6116b56122d8565b6114da565b61170f576040517f08c379a00000000000000000000000000000000000000000000000000000000081526004018080602001828103825260308152602001806129356030913960400191505060405180910390fd5b600160009054906101000a900460ff1615611792576040517f08c379a00000000000000000000000000000000000000000000000000000000081526004018080602001828103825260108152602001807f5061757361626c653a207061757365640000000000000000000000000000000081525060200191505060405180910390fd5b60018060006101000a81548160ff0219169083151502179055507f62e78cea01bee320cd4e420270b5ea74000d11b0c9f74754ebdbfc544b05a2586117d56122d8565b604051808273ffffffffffffffffffffffffffffffffffffffff1673ffffffffffffffffffffffffffffffffffffffff16815260200191505060405180910390a1565b600160009054906101000a900460ff161561189b576040517f08c379a00000000000000000000000000000000000000000000000000000000081526004018080602001828103825260108152602001807f5061757361626c653a207061757365640000000000000000000000000000000081525060200191505060405180910390fd5b8180516020111580156118b057506040815111155b611905576040517f08c379a00000000000000000000000000000000000000000000000000000000081526004018080602001828103825260278152602001806128e36027913960400191505060405180910390fd5b818051600010801561191b575060ff8016815111155b611970576040517f08c379a000000000000000000000000000000000000000000000000000000000815260040180806020018281038252602b81526020018061290a602b913960400191505060405180910390fd5b6000846040516020018082805190602001908083835b602083106119a95780518252602082019150602081019050602083039250611986565b6001836020036101000a038019825116818451168082178552505050505050905001915050604051602081830303815290604052805190602001209050600060036000838152602001908152602001600020905060008180546001816001161561010002031660029004905014611a6b576040517f08c379a0000000000000000000000000000000000000000000000000000000008152600401808060200182810382526029815260200180612a1c6029913960400191505060405180910390fd5b611a73612702565b600260003373ffffffffffffffffffffffffffffffffffffffff1673ffffffffffffffffffffffffffffffffffffffff16815260200190815260200160002060405180606001604052808581526020018881526020018381525090806001815401808255809150509060018203906000526020600020906005020160009091929091909150600082015181600001556020820151816001019080519060200190611b1e92919061271f565b506040820151816002016000820151816001019080519060200190611b4492919061279f565b5060208201518160020160006101000a81548160ff021916908360ff160217905550505050505086600360008581526020019081526020016000209080519060200190611b929291906127ec565b50827f72adac3fbc71bbbf7aee418c47ef58da59b60d520721a187f90e46fbd4ce8bd88888604051808060200180602001838103835285818151815260200191508051906020019080838360005b83811015611bfb578082015181840152602081019050611be0565b50505050905090810190601f168015611c285780820380516001836020036101000a031916815260200191505b50838103825284818151815260200191508051906020019080838360005b83811015611c61578082015181840152602081019050611c46565b50505050905090810190601f168015611c8e5780820380516001836020036101000a031916815260200191505b5094505050505060405180910390a250505050505050565b600081600260003373ffffffffffffffffffffffffffffffffffffffff1673ffffffffffffffffffffffffffffffffffffffff168152602001908152602001600020805490508110611d43576040517f08c379a00000000000000000000000000000000000000000000000000000000081526004018080602001828103825260248152602001806129656024913960400191505060405180910390fd5b6000600260003373ffffffffffffffffffffffffffffffffffffffff1673ffffffffffffffffffffffffffffffffffffffff1681526020019081526020016000208481548110611d8f57fe5b906000526020600020906005020160020190508060020160009054906101000a900460ff1660ff1692505050919050565b6000600260003373ffffffffffffffffffffffffffffffffffffffff1673ffffffffffffffffffffffffffffffffffffffff16815260200190815260200160002080549050905090565b600a81565b600160009054906101000a900460ff1615611e92576040517f08c379a00000000000000000000000000000000000000000000000000000000081526004018080602001828103825260108152602001807f5061757361626c653a207061757365640000000000000000000000000000000081525060200191505060405180910390fd5b81600260003373ffffffffffffffffffffffffffffffffffffffff1673ffffffffffffffffffffffffffffffffffffffff168152602001908152602001600020805490508110611f2d576040517f08c379a00000000000000000000000000000000000000000000000000000000081526004018080602001828103825260248152602001806129656024913960400191505060405180910390fd5b8180516000108015611f43575060ff8016815111155b611f98576040517f08c379a000000000000000000000000000000000000000000000000000000000815260040180806020018281038252602b81526020018061290a602b913960400191505060405180910390fd5b6000600260003373ffffffffffffffffffffffffffffffffffffffff1673ffffffffffffffffffffffffffffffffffffffff1681526020019081526020016000208581548110611fe457fe5b906000526020600020906005020160010190507fc8e16a6f806056a03e3f892a26e12a7535598a84aabcb7237afbcdaddb302b8f8185426040518080602001806020018481526020018381038352868181546001816001161561010002031660029004815260200191508054600181600116156101000203166002900480156120ae5780601f10612083576101008083540402835291602001916120ae565b820191906000526020600020905b81548152906001019060200180831161209157829003601f168201915b5050838103825285818151815260200191508051906020019080838360005b838110156120e85780820151818401526020810190506120cd565b50505050905090810190601f1680156121155780820380516001836020036101000a031916815260200191505b509550505050505060405180910390a183600260003373ffffffffffffffffffffffffffffffffffffffff1673ffffffffffffffffffffffffffffffffffffffff168152602001908152602001600020868154811061217057fe5b906000526020600020906005020160010190805190602001906121949291906127ec565b505050505050565b602081565b600082600101805490508210905092915050565b6000808360010183815481106121c757fe5b9060005260206000200154915083600001600083815260200190815260200160002060010160009054906101000a900460ff1690509250929050565b600060208201519050919050565b6000808360000160008481526020019081526020016000206000015411905092915050565b60008083600001600084815260200190815260200160002060000154905060008114156122675760009150506122d2565b8360000160008481526020019081526020016000206000808201600090556001820160006101000a81549060ff0219169055505083600201600081819054906101000a900460ff16809291906001900391906101000a81548160ff021916908360ff16021790555050505b92915050565b600033905090565b600080836000016000848152602001908152602001600020600001549050600184600001600085815260200190815260200160002060010160006101000a81548160ff02191690831515021790555060008111156123425760019150506123d2565b836001018054809190600101612358919061286c565b905060018101846000016000858152602001908152602001600020600001819055508284600101828154811061238a57fe5b906000526020600020018190555083600201600081819054906101000a900460ff168092919060010191906101000a81548160ff021916908360ff1602179055505060009150505b92915050565b60008073ffffffffffffffffffffffffffffffffffffffff168273ffffffffffffffffffffffffffffffffffffffff16141561245f576040517f08c379a00000000000000000000000000000000000000000000000000000000081526004018080602001828103825260228152602001806129fa6022913960400191505060405180910390fd5b8260000160008373ffffffffffffffffffffffffffffffffffffffff1673ffffffffffffffffffffffffffffffffffffffff16815260200190815260200160002060009054906101000a900460ff16905092915050565b6124ca81600061256a90919063ffffffff16565b8073ffffffffffffffffffffffffffffffffffffffff167fcd265ebaf09df2871cc7bd4133404a235ba12eff2041bb89d9c714a2621c7c7e60405160405180910390a250565b61252481600061262790919063ffffffff16565b8073ffffffffffffffffffffffffffffffffffffffff167f6719d08c1888103bea251a4ed56406bd0c3e69723c8a1686e017e7bbe159b6f860405160405180910390a250565b61257482826123d8565b6125c9576040517f08c379a00000000000000000000000000000000000000000000000000000000081526004018080602001828103825260218152602001806129b16021913960400191505060405180910390fd5b60008260000160008373ffffffffffffffffffffffffffffffffffffffff1673ffffffffffffffffffffffffffffffffffffffff16815260200190815260200160002060006101000a81548160ff0219169083151502179055505050565b61263182826123d8565b156126a4576040517f08c379a000000000000000000000000000000000000000000000000000000000815260040180806020018281038252601f8152602001807f526f6c65733a206163636f756e7420616c72656164792068617320726f6c650081525060200191505060405180910390fd5b60018260000160008373ffffffffffffffffffffffffffffffffffffffff1673ffffffffffffffffffffffffffffffffffffffff16815260200190815260200160002060006101000a81548160ff0219169083151502179055505050565b604051806040016040528060608152602001600060ff1681525090565b828054600181600116156101000203166002900490600052602060002090601f016020900481019282601f1061276057805160ff191683800117855561278e565b8280016001018555821561278e579182015b8281111561278d578251825591602001919060010190612772565b5b50905061279b9190612898565b5090565b8280548282559060005260206000209081019282156127db579160200282015b828111156127da5782518255916020019190600101906127bf565b5b5090506127e891906128bd565b5090565b828054600181600116156101000203166002900490600052602060002090601f016020900481019282601f1061282d57805160ff191683800117855561285b565b8280016001018555821561285b579182015b8281111561285a57825182559160200191906001019061283f565b5b5090506128689190612898565b5090565b8154818355818111156128935781836000526020600020918201910161289291906128bd565b5b505050565b6128ba91905b808211156128b657600081600090555060010161289e565b5090565b90565b6128df91905b808211156128db5760008160009055506001016128c3565b5090565b9056fe546865206c656e677468206f6620796f75722049504653206861736820697320696e76616c69645469746c65206d757374206e6f7420626520656d707479206f722065786365656420323535206279746573506175736572526f6c653a2063616c6c657220646f6573206e6f742068617665207468652050617573657220726f6c6554686520636f6e74656e742072657175657374656420646f6573206e6f74206578697374546869732074616720646f6573206e6f7420657869737420666f72207468697320636f6e74656e74526f6c65733a206163636f756e7420646f6573206e6f74206861766520726f6c65546167206d757374206e6f7420626520656d707479206f7220657863656564203235206279746573526f6c65733a206163636f756e7420697320746865207a65726f20616464726573735468697320636f6e74656e74206861732070726576696f75736c79206265656e2075706c6f6164656455706c6f6164656420636f6e74656e7420686176652061206c696d6974206f6620313020746167732065616368546869732074616720616c72656164792065786973747320666f72207468697320636f6e74656e74a265627a7a72315820ff0a0d63bb875c736673e21e8d4c3f54bdc0c48c54a64deb8b9a747b43c7de8864736f6c634300050c0032526f6c65733a206163636f756e7420697320746865207a65726f2061646472657373",
  "source": "pragma solidity ^0.5.0;\n\nimport \"@openzeppelin/contracts/lifecycle/Pausable.sol\";\nimport \"./lib/IterableMapping.sol\";\n\ncontract DocumentInfo is Pausable {\n    using IterableMapping for IterableMapping.itmap;\n    /* Constants */\n    // limit length of tag and title to control gas price of storing metadata\n    uint8 public constant MAX_TITLE_LENGTH = 255;\n    uint8 public constant MAX_TAG_LENGTH = 32;\n    // Limit to 10 tags per document for gas optimisation\n    uint8 public constant MAX_NUM_TAG = 10;\n\n    /* Mappings */\n    // map documents to the owner that uploaded them\n    mapping(address => DocumentMetadata[]) documentsByUploader;\n    // map all documents by id to prevent same content uploaded again\n    mapping(bytes32 => string) documentHashById;\n\n    /* Document Struct */\n    struct DocumentMetadata {\n        bytes32 documentId;\n        string title;\n        IterableMapping.itmap tags; // can't check for unique tag in array, use mapping\n    }\n\n    /* Document Events */\n    event DocumentCreated(bytes32 indexed documentId, string ipfsHash, string title);\n    event TitleEdited(string oldTitle, string newTitle, uint timeEdited);\n    event TagAdded(string tag, uint8 tagCount, uint timeAdded);\n    event TagRemoved(string tag, uint8 tagCount, uint timeRemoved);\n\n    /* Length Constraint Modifiers */\n    /**\n     * @notice Require a ipfs hash length between 32 and 64\n     * @dev Ipfs Hash have different lengths from different hashing algorithms, but cryptographic hashes generally have length limit of 64 bytes\n     */\n    modifier verifyIPFSHash (string memory _ipfsHash) {\n        require(\n            32 <= bytes(_ipfsHash).length && bytes(_ipfsHash).length <= 64,\n            'The length of your IPFS hash is invalid'\n        );\n        _;\n    }\n\n    /**\n     * @notice Check title length constraints\n     * @dev Recommended to store on ipfs if metadata is too large\n     */\n    modifier verifyTitleLength (string memory _title) {\n        require(\n            0 < bytes(_title).length && bytes(_title).length <= MAX_TITLE_LENGTH,\n            'Title must not be empty or exceed 255 bytes'\n        );\n        _;\n    }\n    /**\n     * @notice Check tag length constraints\n     */\n    modifier verifyTagLength (string memory _tag) {\n        require(\n            0 < bytes(_tag).length && bytes(_tag).length <= MAX_TAG_LENGTH,\n            'Tag must not be empty or exceed 25 bytes'\n        );\n        _;\n    }\n    /**\n     * @notice Check each document do not exceed the total number of tags\n     */\n    modifier verifyNumTags (uint tagCount) {\n        require(\n            tagCount < MAX_NUM_TAG,\n            'Uploaded content have a limit of 10 tags each'\n        );\n        _;\n    }\n\n    /* Integrity Check Modifier */\n    /**\n     * @notice Checks if the document has been uploaded by the owner\n     * @dev Documents can not be deleted, so the array will not contain gaps with empty info\n     */\n    modifier hasUploaded(uint documentIndex) { \n        require(\n            documentIndex < documentsByUploader[msg.sender].length,\n            'The content requested does not exist'\n        );\n        _;\n    }\n\n    /* State Modifying Functions */\n    /**\n     * @notice Creates a new document for the caller of this function\n     * @dev DocumentCreated event emitted\n     * @dev documentId generated using the keccak256 hash of the ipfs hash, which is longer than 32 bytes\n     * @param _ipfsHash the ipfs hash of the document\n     * @param _title the title of the document\n     */\n     function createDocument(string memory _ipfsHash, string memory _title)\n        public\n        whenNotPaused()\n        verifyIPFSHash(_ipfsHash)\n        verifyTitleLength(_title)\n        {\n            bytes32 _documentId = keccak256(abi.encodePacked(_ipfsHash));\n            string storage ipfsHash = documentHashById[_documentId];\n            // only create document if the content has not been uploaded before\n            require(bytes(ipfsHash).length == 0, 'This content has previously been uploaded');\n            // adding hash and metadata\n            IterableMapping.itmap memory _tags;\n            documentsByUploader[msg.sender].push(DocumentMetadata(_documentId, _title, _tags));\n            documentHashById[_documentId] = _ipfsHash;\n\n            emit DocumentCreated(_documentId, _ipfsHash, _title);\n        }\n\n    /**\n     * @notice Allow users to edit the title of a document they own\n     * @dev TitleEdited event emitted\n     * @param documentIndex The index of the document in the caller's document list\n     * @param _title The new title to rename the document into\n     */\n     function editTitle(uint documentIndex, string memory _title)\n        public\n        whenNotPaused()\n        hasUploaded(documentIndex)\n        verifyTitleLength(_title)\n    {\n        string storage oldTitle = documentsByUploader[msg.sender][documentIndex].title;\n        // emit event before changing the storage reference or else\n        // oldTitle value will be pointing to the value of the new title\n        emit TitleEdited(oldTitle, _title, now);\n        \n        documentsByUploader[msg.sender][documentIndex].title = _title;\n\n    }\n\n    /**\n     * @notice Transforms string into a fixed bytes32 array\n     * @dev String conversion to bytes32 not allowed as the string might truncate, use assembly\n     * @param _tag The tag to convert to bytes32 array\n     * @return A bytes32 array containing the tag \n     */\n    function tagToFixedByteArray(string memory _tag) private pure returns (bytes32 tag) {\n        assembly { tag := mload(add(_tag, 32)) }\n    }\n\n    /**\n     * @notice Adds a tag to a document the caller owns\n     * @dev To ensure uniqueness of tags, a tagId is generated using the keccak256 of the tag to map the tags\n     * @dev TagAdded event emitted\n     * @param documentIndex The index of the document in the caller's document list\n     * @param _tag The tag the caller wants to put for a document\n     */\n    function addTag(uint documentIndex, string memory _tag)\n        public\n        whenNotPaused()\n        verifyTagLength(_tag)\n        hasUploaded(documentIndex)\n        verifyNumTags(documentsByUploader[msg.sender][documentIndex].tags.size)\n    {\n        bytes32 tag = tagToFixedByteArray(_tag);\n        IterableMapping.itmap storage tags = documentsByUploader[msg.sender][documentIndex].tags;\n        // Prevent duplication of tags\n        require(\n            !tags.contains(tag),\n            'This tag already exists for this content'\n        );\n        \n        tags.insert(tag);\n\n        emit TagAdded(_tag, tags.size, now);\n    }\n\n    /**\n     * @notice Removes the tag for a caller's document by the contents of the tag\n     * @dev TagRemoved event emitted\n     * @param documentIndex The index of the document in the caller's document list\n     * @param _tag The tag to be removed for the document\n     */\n    function removeTag(uint documentIndex, string memory _tag)\n        public\n        whenNotPaused()\n        hasUploaded(documentIndex)\n    {\n        bytes32 tag = tagToFixedByteArray(_tag);\n        IterableMapping.itmap storage tags = documentsByUploader[msg.sender][documentIndex].tags;\n        // Only delete if this tag has been added before\n        require(\n            tags.contains(tag),\n            'This tag does not exist for this content'\n        );\n        // Delete tag from map\n        tags.remove(tag);\n\n        emit TagRemoved(_tag, tags.size, now);\n    }\n\n    /* View Functions */\n    /**\n     * @notice Gets the number of documents the caller has uploaded\n     * @return Number of documents created by caller\n     */\n    function getNumberOfDocuments() public view returns (uint) {\n         return documentsByUploader[msg.sender].length;\n    }\n\n    /**\n     * @notice Gets data for a document in the caller's document list\n     * @param documentIndex The index of the document in the caller's document list\n     * @return The document id, title and ipfs hash the document specified\n     */\n     function getDocument(uint documentIndex)\n        public\n        view\n        hasUploaded(documentIndex)\n        returns (bytes32 _documentId, string memory _title, string memory _ipfsHash)\n    {\n        bytes32 documentId = documentsByUploader[msg.sender][documentIndex].documentId;\n        string storage title = documentsByUploader[msg.sender][documentIndex].title;\n        string storage ipfsHash = documentHashById[documentId];\n        return (documentId, title, ipfsHash);\n    }\n\n    /**\n     * @notice Gets the number of tags for a specific document\n     * @param documentIndex The index of the document in the caller's document list\n     * @return Number tags in a document created by caller\n     */\n    function getNumberOfTags(uint documentIndex) \n        public\n        view\n        hasUploaded(documentIndex)\n        returns (uint tagIndex) \n    {\n        IterableMapping.itmap storage tags = documentsByUploader[msg.sender][documentIndex].tags;\n        return tags.size;\n    }\n\n    /**\n     * @notice Gets data for a document in the caller's document list\n     * @param documentIndex The index of the document in the caller's document list\n     * @param tagIndex The index of the tag in the document specified by the caller\n     * @return The tag id and tag string\n     */\n    function getTagByIndex(uint documentIndex, uint tagIndex)\n        public\n        view\n        hasUploaded(documentIndex)\n        returns (bytes32 tag, bool exists)\n    {\n        IterableMapping.itmap storage tags = documentsByUploader[msg.sender][documentIndex].tags;\n        require(\n            tags.valid(tagIndex),\n            'Tag index out of bounds'\n        );\n        return tags.get(tagIndex);     \n    }\n\n    /**\n     * @notice Returns whether the tag index is within bounds\n     * @dev This checks if the tag index is smaller than the array length of all tags, including deleted ones\n     * @param documentIndex The index of the document in the caller's document list\n     * @param tagIndex The tag index to check if it is valid\n     * @return boolean, true for valid tag, false for invalid\n     */\n    function validTagIndex(uint documentIndex, uint tagIndex)\n    public\n    view\n    hasUploaded(documentIndex)\n    returns (bool) {\n        IterableMapping.itmap storage tags = documentsByUploader[msg.sender][documentIndex].tags;\n\n        return tags.valid(tagIndex);\n    }\n}",
  "sourcePath": "contracts/DocumentInfo.sol",
  "compiler": {
    "name": "solc",
    "version": "0.5.12+commit.7709ece9.Emscripten.clang"
  },
  "schemaVersion": "3.0.19",
  "updatedAt": "2019-12-25T10:00:59.219Z",
  "devdoc": {
    "methods": {
      "addTag(uint256,string)": {
        "details": "To ensure uniqueness of tags, a tagId is generated using the keccak256 of the tag to map the tagsTagAdded event emitted",
        "params": {
          "_tag": "The tag the caller wants to put for a document",
          "documentIndex": "The index of the document in the caller's document list"
        }
      },
      "createDocument(string,string)": {
        "details": "DocumentCreated event emitteddocumentId generated using the keccak256 hash of the ipfs hash, which is longer than 32 bytes",
        "params": {
          "_ipfsHash": "the ipfs hash of the document",
          "_title": "the title of the document"
        }
      },
      "editTitle(uint256,string)": {
        "details": "TitleEdited event emitted",
        "params": {
          "_title": "The new title to rename the document into",
          "documentIndex": "The index of the document in the caller's document list"
        }
      },
      "getDocument(uint256)": {
        "params": {
          "documentIndex": "The index of the document in the caller's document list"
        },
        "return": "The document id, title and ipfs hash the document specified"
      },
      "getNumberOfDocuments()": {
        "return": "Number of documents created by caller"
      },
      "getNumberOfTags(uint256)": {
        "params": {
          "documentIndex": "The index of the document in the caller's document list"
        },
        "return": "Number tags in a document created by caller"
      },
      "getTagByIndex(uint256,uint256)": {
        "params": {
          "documentIndex": "The index of the document in the caller's document list",
          "tagIndex": "The index of the tag in the document specified by the caller"
        },
        "return": "The tag id and tag string"
      },
      "pause()": {
        "details": "Called by a pauser to pause, triggers stopped state."
      },
      "paused()": {
        "details": "Returns true if the contract is paused, and false otherwise."
      },
      "removeTag(uint256,string)": {
        "details": "TagRemoved event emitted",
        "params": {
          "_tag": "The tag to be removed for the document",
          "documentIndex": "The index of the document in the caller's document list"
        }
      },
      "unpause()": {
        "details": "Called by a pauser to unpause, returns to normal state."
      },
      "validTagIndex(uint256,uint256)": {
        "details": "This checks if the tag index is smaller than the array length of all tags, including deleted ones",
        "params": {
          "documentIndex": "The index of the document in the caller's document list",
          "tagIndex": "The tag index to check if it is valid"
        },
        "return": "boolean, true for valid tag, false for invalid"
      }
    }
  },
  "userdoc": {
    "methods": {
      "addTag(uint256,string)": {
        "notice": "Adds a tag to a document the caller owns"
      },
      "createDocument(string,string)": {
        "notice": "Creates a new document for the caller of this function"
      },
      "editTitle(uint256,string)": {
        "notice": "Allow users to edit the title of a document they own"
      },
      "getDocument(uint256)": {
        "notice": "Gets data for a document in the caller's document list"
      },
      "getNumberOfDocuments()": {
        "notice": "Gets the number of documents the caller has uploaded"
      },
      "getNumberOfTags(uint256)": {
        "notice": "Gets the number of tags for a specific document"
      },
      "getTagByIndex(uint256,uint256)": {
        "notice": "Gets data for a document in the caller's document list"
      },
      "removeTag(uint256,string)": {
        "notice": "Removes the tag for a caller's document by the contents of the tag"
      },
      "validTagIndex(uint256,uint256)": {
        "notice": "Returns whether the tag index is within bounds"
      }
    }
  }
}